{
  "_format": "hh-sol-artifact-1",
  "contractName": "Delta7",
  "sourceName": "contracts/Delta7.sol",
  "abi": [
    {
      "inputs": [
        {
          "internalType": "string",
          "name": "baseUri",
          "type": "string"
        }
      ],
      "stateMutability": "nonpayable",
      "type": "constructor"
    },
    {
      "anonymous": false,
      "inputs": [
        {
          "indexed": true,
          "internalType": "address",
          "name": "account",
          "type": "address"
        },
        {
          "indexed": true,
          "internalType": "address",
          "name": "operator",
          "type": "address"
        },
        {
          "indexed": false,
          "internalType": "bool",
          "name": "approved",
          "type": "bool"
        }
      ],
      "name": "ApprovalForAll",
      "type": "event"
    },
    {
      "anonymous": false,
      "inputs": [
        {
          "indexed": false,
          "internalType": "uint256",
          "name": "round",
          "type": "uint256"
        }
      ],
      "name": "AuctionEnded",
      "type": "event"
    },
    {
      "anonymous": false,
      "inputs": [
        {
          "indexed": false,
          "internalType": "uint256",
          "name": "startIndex",
          "type": "uint256"
        },
        {
          "indexed": false,
          "internalType": "uint256",
          "name": "numberOfItems",
          "type": "uint256"
        },
        {
          "indexed": false,
          "internalType": "uint256",
          "name": "numberOfDays",
          "type": "uint256"
        }
      ],
      "name": "AuctionStarted",
      "type": "event"
    },
    {
      "anonymous": false,
      "inputs": [
        {
          "indexed": false,
          "internalType": "address",
          "name": "account",
          "type": "address"
        },
        {
          "indexed": false,
          "internalType": "uint256",
          "name": "item",
          "type": "uint256"
        },
        {
          "indexed": false,
          "internalType": "uint256",
          "name": "amount",
          "type": "uint256"
        }
      ],
      "name": "BidPlaced",
      "type": "event"
    },
    {
      "anonymous": false,
      "inputs": [
        {
          "indexed": true,
          "internalType": "address",
          "name": "previousOwner",
          "type": "address"
        },
        {
          "indexed": true,
          "internalType": "address",
          "name": "newOwner",
          "type": "address"
        }
      ],
      "name": "OwnershipTransferred",
      "type": "event"
    },
    {
      "anonymous": false,
      "inputs": [
        {
          "indexed": true,
          "internalType": "address",
          "name": "operator",
          "type": "address"
        },
        {
          "indexed": true,
          "internalType": "address",
          "name": "from",
          "type": "address"
        },
        {
          "indexed": true,
          "internalType": "address",
          "name": "to",
          "type": "address"
        },
        {
          "indexed": false,
          "internalType": "uint256[]",
          "name": "ids",
          "type": "uint256[]"
        },
        {
          "indexed": false,
          "internalType": "uint256[]",
          "name": "values",
          "type": "uint256[]"
        }
      ],
      "name": "TransferBatch",
      "type": "event"
    },
    {
      "anonymous": false,
      "inputs": [
        {
          "indexed": true,
          "internalType": "address",
          "name": "operator",
          "type": "address"
        },
        {
          "indexed": true,
          "internalType": "address",
          "name": "from",
          "type": "address"
        },
        {
          "indexed": true,
          "internalType": "address",
          "name": "to",
          "type": "address"
        },
        {
          "indexed": false,
          "internalType": "uint256",
          "name": "id",
          "type": "uint256"
        },
        {
          "indexed": false,
          "internalType": "uint256",
          "name": "value",
          "type": "uint256"
        }
      ],
      "name": "TransferSingle",
      "type": "event"
    },
    {
      "anonymous": false,
      "inputs": [
        {
          "indexed": false,
          "internalType": "string",
          "name": "value",
          "type": "string"
        },
        {
          "indexed": true,
          "internalType": "uint256",
          "name": "id",
          "type": "uint256"
        }
      ],
      "name": "URI",
      "type": "event"
    },
    {
      "inputs": [],
      "name": "adminWallet",
      "outputs": [
        {
          "internalType": "address",
          "name": "",
          "type": "address"
        }
      ],
      "stateMutability": "view",
      "type": "function"
    },
    {
      "inputs": [],
      "name": "auctionEndDate",
      "outputs": [
        {
          "internalType": "uint256",
          "name": "",
          "type": "uint256"
        }
      ],
      "stateMutability": "view",
      "type": "function"
    },
    {
      "inputs": [],
      "name": "auctionEndIndex",
      "outputs": [
        {
          "internalType": "uint256",
          "name": "",
          "type": "uint256"
        }
      ],
      "stateMutability": "view",
      "type": "function"
    },
    {
      "inputs": [],
      "name": "auctionIsRunning",
      "outputs": [
        {
          "internalType": "bool",
          "name": "",
          "type": "bool"
        }
      ],
      "stateMutability": "view",
      "type": "function"
    },
    {
      "inputs": [],
      "name": "auctionStartDate",
      "outputs": [
        {
          "internalType": "uint256",
          "name": "",
          "type": "uint256"
        }
      ],
      "stateMutability": "view",
      "type": "function"
    },
    {
      "inputs": [],
      "name": "auctionStartIndex",
      "outputs": [
        {
          "internalType": "uint256",
          "name": "",
          "type": "uint256"
        }
      ],
      "stateMutability": "view",
      "type": "function"
    },
    {
      "inputs": [
        {
          "internalType": "uint256",
          "name": "item",
          "type": "uint256"
        },
        {
          "internalType": "uint256",
          "name": "_round",
          "type": "uint256"
        }
      ],
      "name": "auctionWinner",
      "outputs": [
        {
          "internalType": "address",
          "name": "account",
          "type": "address"
        },
        {
          "internalType": "uint256",
          "name": "amount",
          "type": "uint256"
        }
      ],
      "stateMutability": "view",
      "type": "function"
    },
    {
      "inputs": [
        {
          "internalType": "address",
          "name": "account",
          "type": "address"
        },
        {
          "internalType": "uint256",
          "name": "id",
          "type": "uint256"
        }
      ],
      "name": "balanceOf",
      "outputs": [
        {
          "internalType": "uint256",
          "name": "",
          "type": "uint256"
        }
      ],
      "stateMutability": "view",
      "type": "function"
    },
    {
      "inputs": [
        {
          "internalType": "address[]",
          "name": "accounts",
          "type": "address[]"
        },
        {
          "internalType": "uint256[]",
          "name": "ids",
          "type": "uint256[]"
        }
      ],
      "name": "balanceOfBatch",
      "outputs": [
        {
          "internalType": "uint256[]",
          "name": "",
          "type": "uint256[]"
        }
      ],
      "stateMutability": "view",
      "type": "function"
    },
    {
      "inputs": [
        {
          "internalType": "uint256",
          "name": "_round",
          "type": "uint256"
        },
        {
          "internalType": "uint256",
          "name": "item",
          "type": "uint256"
        }
      ],
      "name": "bidCount",
      "outputs": [
        {
          "internalType": "uint256",
          "name": "",
          "type": "uint256"
        }
      ],
      "stateMutability": "view",
      "type": "function"
    },
    {
      "inputs": [
        {
          "internalType": "uint256",
          "name": "_round",
          "type": "uint256"
        },
        {
          "internalType": "uint256",
          "name": "item",
          "type": "uint256"
        },
        {
          "internalType": "uint256",
          "name": "index",
          "type": "uint256"
        }
      ],
      "name": "getBid",
      "outputs": [
        {
          "internalType": "address",
          "name": "account",
          "type": "address"
        },
        {
          "internalType": "uint256",
          "name": "amount",
          "type": "uint256"
        }
      ],
      "stateMutability": "view",
      "type": "function"
    },
    {
      "inputs": [
        {
          "internalType": "uint256",
          "name": "_round",
          "type": "uint256"
        },
        {
          "internalType": "uint256",
          "name": "item",
          "type": "uint256"
        },
        {
          "internalType": "address",
          "name": "account",
          "type": "address"
        }
      ],
      "name": "getBidByAccount",
      "outputs": [
        {
          "internalType": "uint256",
          "name": "",
          "type": "uint256"
        }
      ],
      "stateMutability": "view",
      "type": "function"
    },
    {
      "inputs": [
        {
          "internalType": "address",
          "name": "account",
          "type": "address"
        },
        {
          "internalType": "address",
          "name": "operator",
          "type": "address"
        }
      ],
      "name": "isApprovedForAll",
      "outputs": [
        {
          "internalType": "bool",
          "name": "",
          "type": "bool"
        }
      ],
      "stateMutability": "view",
      "type": "function"
    },
    {
      "inputs": [],
      "name": "owner",
      "outputs": [
        {
          "internalType": "address",
          "name": "",
          "type": "address"
        }
      ],
      "stateMutability": "view",
      "type": "function"
    },
    {
      "inputs": [
        {
          "internalType": "uint256",
          "name": "item",
          "type": "uint256"
        },
        {
          "internalType": "uint256",
          "name": "amount",
          "type": "uint256"
        }
      ],
      "name": "placeBid",
      "outputs": [],
      "stateMutability": "nonpayable",
      "type": "function"
    },
    {
      "inputs": [],
      "name": "releaseItems",
      "outputs": [],
      "stateMutability": "nonpayable",
      "type": "function"
    },
    {
      "inputs": [],
      "name": "renounceOwnership",
      "outputs": [],
      "stateMutability": "nonpayable",
      "type": "function"
    },
    {
      "inputs": [],
      "name": "round",
      "outputs": [
        {
          "internalType": "uint256",
          "name": "",
          "type": "uint256"
        }
      ],
      "stateMutability": "view",
      "type": "function"
    },
    {
      "inputs": [
        {
          "internalType": "address",
          "name": "from",
          "type": "address"
        },
        {
          "internalType": "address",
          "name": "to",
          "type": "address"
        },
        {
          "internalType": "uint256[]",
          "name": "ids",
          "type": "uint256[]"
        },
        {
          "internalType": "uint256[]",
          "name": "amounts",
          "type": "uint256[]"
        },
        {
          "internalType": "bytes",
          "name": "data",
          "type": "bytes"
        }
      ],
      "name": "safeBatchTransferFrom",
      "outputs": [],
      "stateMutability": "nonpayable",
      "type": "function"
    },
    {
      "inputs": [
        {
          "internalType": "address",
          "name": "from",
          "type": "address"
        },
        {
          "internalType": "address",
          "name": "to",
          "type": "address"
        },
        {
          "internalType": "uint256",
          "name": "id",
          "type": "uint256"
        },
        {
          "internalType": "uint256",
          "name": "amount",
          "type": "uint256"
        },
        {
          "internalType": "bytes",
          "name": "data",
          "type": "bytes"
        }
      ],
      "name": "safeTransferFrom",
      "outputs": [],
      "stateMutability": "nonpayable",
      "type": "function"
    },
    {
      "inputs": [
        {
          "internalType": "address",
          "name": "account",
          "type": "address"
        }
      ],
      "name": "setAdminWallet",
      "outputs": [],
      "stateMutability": "nonpayable",
      "type": "function"
    },
    {
      "inputs": [
        {
          "internalType": "address",
          "name": "operator",
          "type": "address"
        },
        {
          "internalType": "bool",
          "name": "approved",
          "type": "bool"
        }
      ],
      "name": "setApprovalForAll",
      "outputs": [],
      "stateMutability": "nonpayable",
      "type": "function"
    },
    {
      "inputs": [
        {
          "internalType": "address",
          "name": "instance",
          "type": "address"
        }
      ],
      "name": "setDfcTokenInstance",
      "outputs": [],
      "stateMutability": "nonpayable",
      "type": "function"
    },
    {
      "inputs": [
        {
          "internalType": "uint256",
          "name": "numberOfItems",
          "type": "uint256"
        },
        {
          "internalType": "uint256",
          "name": "numberOfDays",
          "type": "uint256"
        }
      ],
      "name": "startAuction",
      "outputs": [],
      "stateMutability": "nonpayable",
      "type": "function"
    },
    {
      "inputs": [
        {
          "internalType": "bytes4",
          "name": "interfaceId",
          "type": "bytes4"
        }
      ],
      "name": "supportsInterface",
      "outputs": [
        {
          "internalType": "bool",
          "name": "",
          "type": "bool"
        }
      ],
      "stateMutability": "view",
      "type": "function"
    },
    {
      "inputs": [
        {
          "internalType": "uint256",
          "name": "",
          "type": "uint256"
        },
        {
          "internalType": "uint256",
          "name": "",
          "type": "uint256"
        },
        {
          "internalType": "uint256",
          "name": "",
          "type": "uint256"
        }
      ],
      "name": "topBidders",
      "outputs": [
        {
          "internalType": "address",
          "name": "",
          "type": "address"
        }
      ],
      "stateMutability": "view",
      "type": "function"
    },
    {
      "inputs": [
        {
          "internalType": "uint256",
          "name": "",
          "type": "uint256"
        },
        {
          "internalType": "uint256",
          "name": "",
          "type": "uint256"
        },
        {
          "internalType": "uint256",
          "name": "",
          "type": "uint256"
        }
      ],
      "name": "topBids",
      "outputs": [
        {
          "internalType": "uint256",
          "name": "",
          "type": "uint256"
        }
      ],
      "stateMutability": "view",
      "type": "function"
    },
    {
      "inputs": [
        {
          "internalType": "address",
          "name": "newOwner",
          "type": "address"
        }
      ],
      "name": "transferOwnership",
      "outputs": [],
      "stateMutability": "nonpayable",
      "type": "function"
    },
    {
      "inputs": [
        {
          "internalType": "uint256",
          "name": "",
          "type": "uint256"
        }
      ],
      "name": "uri",
      "outputs": [
        {
          "internalType": "string",
          "name": "",
          "type": "string"
        }
      ],
      "stateMutability": "view",
      "type": "function"
    }
  ],
  "bytecode": "0x60806040523480156200001157600080fd5b5060405162004b0e38038062004b0e83398181016040528101906200003791906200027d565b8062000049816200007160201b60201c565b506200006a6200005e6200008d60201b60201c565b6200009560201b60201c565b50620003f3565b8060029080519060200190620000899291906200015b565b5050565b600033905090565b6000600360009054906101000a900473ffffffffffffffffffffffffffffffffffffffff16905081600360006101000a81548173ffffffffffffffffffffffffffffffffffffffff021916908373ffffffffffffffffffffffffffffffffffffffff1602179055508173ffffffffffffffffffffffffffffffffffffffff168173ffffffffffffffffffffffffffffffffffffffff167f8be0079c531659141344cd1fd0a4f28419497f9722a3daafe3b4186f6b6457e060405160405180910390a35050565b82805462000169906200035f565b90600052602060002090601f0160209004810192826200018d5760008555620001d9565b82601f10620001a857805160ff1916838001178555620001d9565b82800160010185558215620001d9579182015b82811115620001d8578251825591602001919060010190620001bb565b5b509050620001e89190620001ec565b5090565b5b8082111562000207576000816000905550600101620001ed565b5090565b6000620002226200021c84620002f6565b620002c2565b9050828152602081018484840111156200023b57600080fd5b6200024884828562000329565b509392505050565b600082601f8301126200026257600080fd5b8151620002748482602086016200020b565b91505092915050565b6000602082840312156200029057600080fd5b600082015167ffffffffffffffff811115620002ab57600080fd5b620002b98482850162000250565b91505092915050565b6000604051905081810181811067ffffffffffffffff82111715620002ec57620002eb620003c4565b5b8060405250919050565b600067ffffffffffffffff821115620003145762000313620003c4565b5b601f19601f8301169050602081019050919050565b60005b83811015620003495780820151818401526020810190506200032c565b8381111562000359576000848401525b50505050565b600060028204905060018216806200037857607f821691505b602082108114156200038f576200038e62000395565b5b50919050565b7f4e487b7100000000000000000000000000000000000000000000000000000000600052602260045260246000fd5b7f4e487b7100000000000000000000000000000000000000000000000000000000600052604160045260246000fd5b61470b80620004036000396000f3fe608060405234801561001057600080fd5b50600436106101ce5760003560e01c806357c90de511610104578063b42d0401116100a2578063e8b10c5611610071578063e8b10c5614610543578063e985e9c514610561578063f242432a14610591578063f2fde38b146105ad576101ce565b8063b42d0401146104bb578063b5c2e632146104eb578063cf7a656c14610509578063e0e8c40214610513576101ce565b80637463deda116100de5780637463deda146104345780638b6cb426146104655780638da5cb5b14610481578063a22cb4651461049f576101ce565b806357c90de5146103dd5780636411fd1c146103f9578063715018a61461042a576101ce565b806336b19cd71161017157806342482eea1161014b57806342482eea146103315780634a04ed84146103615780634e1273f4146103915780634fee13fc146103c1576101ce565b806336b19cd7146102d75780633d827e05146102f55780633f6f6fe714610313576101ce565b8063146ca531116101ad578063146ca531146102635780631f6998f1146102815780632eb2c2d61461029f57806335082933146102bb576101ce565b8062fdd58e146101d357806301ffc9a7146102035780630e89341c14610233575b600080fd5b6101ed60048036038101906101e891906131d8565b6105c9565b6040516101fa9190614195565b60405180910390f35b61021d600480360381019061021891906132a9565b610692565b60405161022a9190613eb8565b60405180910390f35b61024d600480360381019061024891906132fb565b610774565b60405161025a9190613ed3565b60405180910390f35b61026b610808565b6040516102789190614195565b60405180910390f35b61028961080e565b6040516102969190614195565b60405180910390f35b6102b960048036038101906102b4919061304e565b610814565b005b6102d560048036038101906102d09190612fe9565b6108b5565b005b6102df610975565b6040516102ec9190613ceb565b60405180910390f35b6102fd61099b565b60405161030a9190614195565b60405180910390f35b61031b6109a1565b6040516103289190613eb8565b60405180910390f35b61034b6004803603810190610346919061334d565b6109b4565b6040516103589190614195565b60405180910390f35b61037b600480360381019061037691906133d8565b610a2b565b6040516103889190613ceb565b60405180910390f35b6103ab60048036038101906103a69190613214565b610a86565b6040516103b89190613e5f565b60405180910390f35b6103db60048036038101906103d6919061334d565b610c37565b005b6103f760048036038101906103f2919061334d565b610e09565b005b610413600480360381019061040e91906133d8565b611430565b604051610421929190613dff565b60405180910390f35b61043261152d565b005b61044e6004803603810190610449919061334d565b6115b5565b60405161045c929190613dff565b60405180910390f35b61047f600480360381019061047a9190612fe9565b6117eb565b005b6104896118ab565b6040516104969190613ceb565b60405180910390f35b6104b960048036038101906104b4919061319c565b6118d5565b005b6104d560048036038101906104d09190613389565b6118eb565b6040516104e29190614195565b60405180910390f35b6104f3611958565b6040516105009190614195565b60405180910390f35b61051161195e565b005b61052d600480360381019061052891906133d8565b611c71565b60405161053a9190614195565b60405180910390f35b61054b611caf565b6040516105589190614195565b60405180910390f35b61057b60048036038101906105769190613012565b611cb5565b6040516105889190613eb8565b60405180910390f35b6105ab60048036038101906105a6919061310d565b611d49565b005b6105c760048036038101906105c29190612fe9565b611dea565b005b60008073ffffffffffffffffffffffffffffffffffffffff168373ffffffffffffffffffffffffffffffffffffffff16141561063a576040517f08c379a000000000000000000000000000000000000000000000000000000000815260040161063190613f55565b60405180910390fd5b60008083815260200190815260200160002060008473ffffffffffffffffffffffffffffffffffffffff1673ffffffffffffffffffffffffffffffffffffffff16815260200190815260200160002054905092915050565b60007fd9b67a26000000000000000000000000000000000000000000000000000000007bffffffffffffffffffffffffffffffffffffffffffffffffffffffff1916827bffffffffffffffffffffffffffffffffffffffffffffffffffffffff1916148061075d57507f0e89341c000000000000000000000000000000000000000000000000000000007bffffffffffffffffffffffffffffffffffffffffffffffffffffffff1916827bffffffffffffffffffffffffffffffffffffffffffffffffffffffff1916145b8061076d575061076c82611ee2565b5b9050919050565b6060600280546107839061449d565b80601f01602080910402602001604051908101604052809291908181526020018280546107af9061449d565b80156107fc5780601f106107d1576101008083540402835291602001916107fc565b820191906000526020600020905b8154815290600101906020018083116107df57829003601f168201915b50505050509050919050565b60045481565b60095481565b61081c611f4c565b73ffffffffffffffffffffffffffffffffffffffff168573ffffffffffffffffffffffffffffffffffffffff16148061086257506108618561085c611f4c565b611cb5565b5b6108a1576040517f08c379a000000000000000000000000000000000000000000000000000000000815260040161089890614015565b60405180910390fd5b6108ae8585858585611f54565b5050505050565b6108bd611f4c565b73ffffffffffffffffffffffffffffffffffffffff166108db6118ab565b73ffffffffffffffffffffffffffffffffffffffff1614610931576040517f08c379a000000000000000000000000000000000000000000000000000000000815260040161092890614075565b60405180910390fd5b80600a60006101000a81548173ffffffffffffffffffffffffffffffffffffffff021916908373ffffffffffffffffffffffffffffffffffffffff16021790555050565b600a60009054906101000a900473ffffffffffffffffffffffffffffffffffffffff1681565b60075481565b600560009054906101000a900460ff1681565b60006004548311156109fb576040517f08c379a00000000000000000000000000000000000000000000000000000000081526004016109f290613f95565b60405180910390fd5b600e6000848152602001908152602001600020600083815260200190815260200160002080549050905092915050565b600d6020528260005260406000206020528160005260406000208181548110610a5357600080fd5b90600052602060002001600092509250509054906101000a900473ffffffffffffffffffffffffffffffffffffffff1681565b60608151835114610acc576040517f08c379a0000000000000000000000000000000000000000000000000000000008152600401610ac390614135565b60405180910390fd5b6000835167ffffffffffffffff811115610b0f577f4e487b7100000000000000000000000000000000000000000000000000000000600052604160045260246000fd5b604051908082528060200260200182016040528015610b3d5781602001602082028036833780820191505090505b50905060005b8451811015610c2c57610bd6858281518110610b88577f4e487b7100000000000000000000000000000000000000000000000000000000600052603260045260246000fd5b6020026020010151858381518110610bc9577f4e487b7100000000000000000000000000000000000000000000000000000000600052603260045260246000fd5b60200260200101516105c9565b828281518110610c0f577f4e487b7100000000000000000000000000000000000000000000000000000000600052603260045260246000fd5b60200260200101818152505080610c25906144cf565b9050610b43565b508091505092915050565b610c3f611f4c565b73ffffffffffffffffffffffffffffffffffffffff16610c5d6118ab565b73ffffffffffffffffffffffffffffffffffffffff1614610cb3576040517f08c379a0000000000000000000000000000000000000000000000000000000008152600401610caa90614075565b60405180910390fd5b6007544211610cf7576040517f08c379a0000000000000000000000000000000000000000000000000000000008152600401610cee90614095565b60405180910390fd5b600560009054906101000a900460ff1615610d47576040517f08c379a0000000000000000000000000000000000000000000000000000000008152600401610d3e90613f35565b60405180910390fd5b60006009541115610d6f57610d6860016009546122b490919063ffffffff16565b6008819055505b610d97610d866001846122ca90919063ffffffff16565b6008546122b490919063ffffffff16565b60098190555042600681905550610dcc610dbd62015180836122e090919063ffffffff16565b426122b490919063ffffffff16565b60078190555060046000815480929190610de5906144cf565b91905055506001600560006101000a81548160ff0219169083151502179055505050565b6000600654118015610e1d57506007544211155b610e5c576040517f08c379a0000000000000000000000000000000000000000000000000000000008152600401610e53906140f5565b60405180910390fd5b6008548210158015610e7057506009548211155b610eaf576040517f08c379a0000000000000000000000000000000000000000000000000000000008152600401610ea6906140b5565b60405180910390fd5b600080600e600060045481526020019081526020016000206000858152602001908152602001600020805490501115610f8357600e6000600454815260200190815260200160002060008481526020019081526020016000206001600e60006004548152602001908152602001600020600086815260200190815260200160002080549050610f3e91906143b3565b81548110610f75577f4e487b7100000000000000000000000000000000000000000000000000000000600052603260045260246000fd5b906000526020600020015490505b808211610fc5576040517f08c379a0000000000000000000000000000000000000000000000000000000008152600401610fbc90613fd5565b60405180910390fd5b600b60009054906101000a900473ffffffffffffffffffffffffffffffffffffffff1673ffffffffffffffffffffffffffffffffffffffff166323b872dd3330856040518463ffffffff1660e01b815260040161102493929190613d6e565b602060405180830381600087803b15801561103e57600080fd5b505af1158015611052573d6000803e3d6000fd5b505050506040513d601f19601f820116820180604052508101906110769190613280565b506000600e6000600454815260200190815260200160002060008581526020019081526020016000208054905011156112b457600b60009054906101000a900473ffffffffffffffffffffffffffffffffffffffff1673ffffffffffffffffffffffffffffffffffffffff1663a9059cbb600d6000600454815260200190815260200160002060008681526020019081526020016000206001600d6000600454815260200190815260200160002060008881526020019081526020016000208054905061114391906143b3565b8154811061117a577f4e487b7100000000000000000000000000000000000000000000000000000000600052603260045260246000fd5b9060005260206000200160009054906101000a900473ffffffffffffffffffffffffffffffffffffffff16600e6000600454815260200190815260200160002060008781526020019081526020016000206001600e6000600454815260200190815260200160002060008981526020019081526020016000208054905061120191906143b3565b81548110611238577f4e487b7100000000000000000000000000000000000000000000000000000000600052603260045260246000fd5b90600052602060002001546040518363ffffffff1660e01b8152600401611260929190613dff565b602060405180830381600087803b15801561127a57600080fd5b505af115801561128e573d6000803e3d6000fd5b505050506040513d601f19601f820116820180604052508101906112b29190613280565b505b81600c6000600454815260200190815260200160002060003373ffffffffffffffffffffffffffffffffffffffff1673ffffffffffffffffffffffffffffffffffffffff168152602001908152602001600020600085815260200190815260200160002081905550600e600060045481526020019081526020016000206000848152602001908152602001600020829080600181540180825580915050600190039060005260206000200160009091909190915055600d600060045481526020019081526020016000206000848152602001908152602001600020339080600181540180825580915050600190039060005260206000200160009091909190916101000a81548173ffffffffffffffffffffffffffffffffffffffff021916908373ffffffffffffffffffffffffffffffffffffffff1602179055507fdf8644c0a4c21ed214ce69f395675b3a5fcd1039083daea5058898de40ea314933848460405161142393929190613e28565b60405180910390a1505050565b600080600e60008681526020019081526020016000206000858152602001908152602001600020838154811061148f577f4e487b7100000000000000000000000000000000000000000000000000000000600052603260045260246000fd5b90600052602060002001549050600d6000868152602001908152602001600020600085815260200190815260200160002083815481106114f8577f4e487b7100000000000000000000000000000000000000000000000000000000600052603260045260246000fd5b9060005260206000200160009054906101000a900473ffffffffffffffffffffffffffffffffffffffff169150935093915050565b611535611f4c565b73ffffffffffffffffffffffffffffffffffffffff166115536118ab565b73ffffffffffffffffffffffffffffffffffffffff16146115a9576040517f08c379a00000000000000000000000000000000000000000000000000000000081526004016115a090614075565b60405180910390fd5b6115b360006122f6565b565b6000806004548311156115fd576040517f08c379a00000000000000000000000000000000000000000000000000000000081526004016115f490613f95565b60405180910390fd5b60045483141561165b57600854841015801561161b57506009548411155b61165a576040517f08c379a000000000000000000000000000000000000000000000000000000000815260040161165190614035565b60405180910390fd5b5b6000600e600085815260200190815260200160002060008681526020019081526020016000208054905011156117e457600e600084815260200190815260200160002060008581526020019081526020016000206001600e60008681526020019081526020016000206000878152602001908152602001600020805490506116e391906143b3565b8154811061171a577f4e487b7100000000000000000000000000000000000000000000000000000000600052603260045260246000fd5b90600052602060002001549050600d600084815260200190815260200160002060008581526020019081526020016000206001600d600086815260200190815260200160002060008781526020019081526020016000208054905061177f91906143b3565b815481106117b6577f4e487b7100000000000000000000000000000000000000000000000000000000600052603260045260246000fd5b9060005260206000200160009054906101000a900473ffffffffffffffffffffffffffffffffffffffff1691505b9250929050565b6117f3611f4c565b73ffffffffffffffffffffffffffffffffffffffff166118116118ab565b73ffffffffffffffffffffffffffffffffffffffff1614611867576040517f08c379a000000000000000000000000000000000000000000000000000000000815260040161185e90614075565b60405180910390fd5b80600b60006101000a81548173ffffffffffffffffffffffffffffffffffffffff021916908373ffffffffffffffffffffffffffffffffffffffff16021790555050565b6000600360009054906101000a900473ffffffffffffffffffffffffffffffffffffffff16905090565b6118e76118e0611f4c565b83836123bc565b5050565b6000600c600085815260200190815260200160002060008373ffffffffffffffffffffffffffffffffffffffff1673ffffffffffffffffffffffffffffffffffffffff16815260200190815260200160002060008481526020019081526020016000205490509392505050565b60085481565b60075442116119a2576040517f08c379a000000000000000000000000000000000000000000000000000000000815260040161199990614095565b60405180910390fd5b600560009054906101000a900460ff166119f1576040517f08c379a00000000000000000000000000000000000000000000000000000000081526004016119e8906140d5565b60405180910390fd5b600060085490505b6009548111611a9e576000611a10826004546115b5565b509050600073ffffffffffffffffffffffffffffffffffffffff168173ffffffffffffffffffffffffffffffffffffffff161415611a6e57600a60009054906101000a900473ffffffffffffffffffffffffffffffffffffffff1690505b611a8a8183600160405180602001604052806000815250612529565b508080611a96906144cf565b9150506119f9565b50600b60009054906101000a900473ffffffffffffffffffffffffffffffffffffffff1673ffffffffffffffffffffffffffffffffffffffff1663a9059cbb600a60009054906101000a900473ffffffffffffffffffffffffffffffffffffffff16600b60009054906101000a900473ffffffffffffffffffffffffffffffffffffffff1673ffffffffffffffffffffffffffffffffffffffff166370a08231306040518263ffffffff1660e01b8152600401611b5b9190613ceb565b60206040518083038186803b158015611b7357600080fd5b505afa158015611b87573d6000803e3d6000fd5b505050506040513d601f19601f82011682018060405250810190611bab9190613324565b6040518363ffffffff1660e01b8152600401611bc8929190613dff565b602060405180830381600087803b158015611be257600080fd5b505af1158015611bf6573d6000803e3d6000fd5b505050506040513d601f19601f82011682018060405250810190611c1a9190613280565b506000600560006101000a81548160ff0219169083151502179055507f45806e512b1f4f10e33e8b3cb64d1d11d998d8c554a95e0841fc1c701278bd5d600454604051611c679190614195565b60405180910390a1565b600e6020528260005260406000206020528160005260406000208181548110611c9957600080fd5b9060005260206000200160009250925050505481565b60065481565b6000600160008473ffffffffffffffffffffffffffffffffffffffff1673ffffffffffffffffffffffffffffffffffffffff16815260200190815260200160002060008373ffffffffffffffffffffffffffffffffffffffff1673ffffffffffffffffffffffffffffffffffffffff16815260200190815260200160002060009054906101000a900460ff16905092915050565b611d51611f4c565b73ffffffffffffffffffffffffffffffffffffffff168573ffffffffffffffffffffffffffffffffffffffff161480611d975750611d9685611d91611f4c565b611cb5565b5b611dd6576040517f08c379a0000000000000000000000000000000000000000000000000000000008152600401611dcd90613fb5565b60405180910390fd5b611de385858585856126bf565b5050505050565b611df2611f4c565b73ffffffffffffffffffffffffffffffffffffffff16611e106118ab565b73ffffffffffffffffffffffffffffffffffffffff1614611e66576040517f08c379a0000000000000000000000000000000000000000000000000000000008152600401611e5d90614075565b60405180910390fd5b600073ffffffffffffffffffffffffffffffffffffffff168173ffffffffffffffffffffffffffffffffffffffff161415611ed6576040517f08c379a0000000000000000000000000000000000000000000000000000000008152600401611ecd90613f75565b60405180910390fd5b611edf816122f6565b50565b60007f01ffc9a7000000000000000000000000000000000000000000000000000000007bffffffffffffffffffffffffffffffffffffffffffffffffffffffff1916827bffffffffffffffffffffffffffffffffffffffffffffffffffffffff1916149050919050565b600033905090565b8151835114611f98576040517f08c379a0000000000000000000000000000000000000000000000000000000008152600401611f8f90614155565b60405180910390fd5b600073ffffffffffffffffffffffffffffffffffffffff168473ffffffffffffffffffffffffffffffffffffffff161415612008576040517f08c379a0000000000000000000000000000000000000000000000000000000008152600401611fff90613ff5565b60405180910390fd5b6000612012611f4c565b9050612022818787878787612941565b60005b845181101561221f576000858281518110612069577f4e487b7100000000000000000000000000000000000000000000000000000000600052603260045260246000fd5b6020026020010151905060008583815181106120ae577f4e487b7100000000000000000000000000000000000000000000000000000000600052603260045260246000fd5b60200260200101519050600080600084815260200190815260200160002060008b73ffffffffffffffffffffffffffffffffffffffff1673ffffffffffffffffffffffffffffffffffffffff1681526020019081526020016000205490508181101561214f576040517f08c379a000000000000000000000000000000000000000000000000000000000815260040161214690614055565b60405180910390fd5b81810360008085815260200190815260200160002060008c73ffffffffffffffffffffffffffffffffffffffff1673ffffffffffffffffffffffffffffffffffffffff168152602001908152602001600020819055508160008085815260200190815260200160002060008b73ffffffffffffffffffffffffffffffffffffffff1673ffffffffffffffffffffffffffffffffffffffff16815260200190815260200160002060008282546122049190614303565b9250508190555050505080612218906144cf565b9050612025565b508473ffffffffffffffffffffffffffffffffffffffff168673ffffffffffffffffffffffffffffffffffffffff168273ffffffffffffffffffffffffffffffffffffffff167f4a39dc06d4c0dbc64b70af90fd698a233a518aa5d07e595d983b8c0526c8f7fb8787604051612296929190613e81565b60405180910390a46122ac818787878787612949565b505050505050565b600081836122c29190614303565b905092915050565b600081836122d891906143b3565b905092915050565b600081836122ee9190614359565b905092915050565b6000600360009054906101000a900473ffffffffffffffffffffffffffffffffffffffff16905081600360006101000a81548173ffffffffffffffffffffffffffffffffffffffff021916908373ffffffffffffffffffffffffffffffffffffffff1602179055508173ffffffffffffffffffffffffffffffffffffffff168173ffffffffffffffffffffffffffffffffffffffff167f8be0079c531659141344cd1fd0a4f28419497f9722a3daafe3b4186f6b6457e060405160405180910390a35050565b8173ffffffffffffffffffffffffffffffffffffffff168373ffffffffffffffffffffffffffffffffffffffff16141561242b576040517f08c379a000000000000000000000000000000000000000000000000000000000815260040161242290614115565b60405180910390fd5b80600160008573ffffffffffffffffffffffffffffffffffffffff1673ffffffffffffffffffffffffffffffffffffffff16815260200190815260200160002060008473ffffffffffffffffffffffffffffffffffffffff1673ffffffffffffffffffffffffffffffffffffffff16815260200190815260200160002060006101000a81548160ff0219169083151502179055508173ffffffffffffffffffffffffffffffffffffffff168373ffffffffffffffffffffffffffffffffffffffff167f17307eab39ab6107e8899845ad3d59bd9653f200f220920489ca2b5937696c318360405161251c9190613eb8565b60405180910390a3505050565b600073ffffffffffffffffffffffffffffffffffffffff168473ffffffffffffffffffffffffffffffffffffffff161415612599576040517f08c379a000000000000000000000000000000000000000000000000000000000815260040161259090614175565b60405180910390fd5b60006125a3611f4c565b90506125c4816000876125b588612b19565b6125be88612b19565b87612941565b8260008086815260200190815260200160002060008773ffffffffffffffffffffffffffffffffffffffff1673ffffffffffffffffffffffffffffffffffffffff16815260200190815260200160002060008282546126239190614303565b925050819055508473ffffffffffffffffffffffffffffffffffffffff16600073ffffffffffffffffffffffffffffffffffffffff168273ffffffffffffffffffffffffffffffffffffffff167fc3d58168c5ae7397731d063d5bbf3d657854427343f4c083240f7aacaa2d0f6287876040516126a19291906141b0565b60405180910390a46126b881600087878787612bdf565b5050505050565b600073ffffffffffffffffffffffffffffffffffffffff168473ffffffffffffffffffffffffffffffffffffffff16141561272f576040517f08c379a000000000000000000000000000000000000000000000000000000000815260040161272690613ff5565b60405180910390fd5b6000612739611f4c565b905061275981878761274a88612b19565b61275388612b19565b87612941565b600080600086815260200190815260200160002060008873ffffffffffffffffffffffffffffffffffffffff1673ffffffffffffffffffffffffffffffffffffffff168152602001908152602001600020549050838110156127f0576040517f08c379a00000000000000000000000000000000000000000000000000000000081526004016127e790614055565b60405180910390fd5b83810360008087815260200190815260200160002060008973ffffffffffffffffffffffffffffffffffffffff1673ffffffffffffffffffffffffffffffffffffffff168152602001908152602001600020819055508360008087815260200190815260200160002060008873ffffffffffffffffffffffffffffffffffffffff1673ffffffffffffffffffffffffffffffffffffffff16815260200190815260200160002060008282546128a59190614303565b925050819055508573ffffffffffffffffffffffffffffffffffffffff168773ffffffffffffffffffffffffffffffffffffffff168373ffffffffffffffffffffffffffffffffffffffff167fc3d58168c5ae7397731d063d5bbf3d657854427343f4c083240f7aacaa2d0f6288886040516129229291906141b0565b60405180910390a4612938828888888888612bdf565b50505050505050565b505050505050565b6129688473ffffffffffffffffffffffffffffffffffffffff16612daf565b15612b11578373ffffffffffffffffffffffffffffffffffffffff1663bc197c8187878686866040518663ffffffff1660e01b81526004016129ae959493929190613d06565b602060405180830381600087803b1580156129c857600080fd5b505af19250505080156129f957506040513d601f19601f820116820180604052508101906129f691906132d2565b60015b612a8857612a056145c3565b80612a105750612a4d565b806040517f08c379a0000000000000000000000000000000000000000000000000000000008152600401612a449190613ed3565b60405180910390fd5b6040517f08c379a0000000000000000000000000000000000000000000000000000000008152600401612a7f90613ef5565b60405180910390fd5b63bc197c8160e01b7bffffffffffffffffffffffffffffffffffffffffffffffffffffffff1916817bffffffffffffffffffffffffffffffffffffffffffffffffffffffff191614612b0f576040517f08c379a0000000000000000000000000000000000000000000000000000000008152600401612b0690613f15565b60405180910390fd5b505b505050505050565b60606000600167ffffffffffffffff811115612b5e577f4e487b7100000000000000000000000000000000000000000000000000000000600052604160045260246000fd5b604051908082528060200260200182016040528015612b8c5781602001602082028036833780820191505090505b5090508281600081518110612bca577f4e487b7100000000000000000000000000000000000000000000000000000000600052603260045260246000fd5b60200260200101818152505080915050919050565b612bfe8473ffffffffffffffffffffffffffffffffffffffff16612daf565b15612da7578373ffffffffffffffffffffffffffffffffffffffff1663f23a6e6187878686866040518663ffffffff1660e01b8152600401612c44959493929190613da5565b602060405180830381600087803b158015612c5e57600080fd5b505af1925050508015612c8f57506040513d601f19601f82011682018060405250810190612c8c91906132d2565b60015b612d1e57612c9b6145c3565b80612ca65750612ce3565b806040517f08c379a0000000000000000000000000000000000000000000000000000000008152600401612cda9190613ed3565b60405180910390fd5b6040517f08c379a0000000000000000000000000000000000000000000000000000000008152600401612d1590613ef5565b60405180910390fd5b63f23a6e6160e01b7bffffffffffffffffffffffffffffffffffffffffffffffffffffffff1916817bffffffffffffffffffffffffffffffffffffffffffffffffffffffff191614612da5576040517f08c379a0000000000000000000000000000000000000000000000000000000008152600401612d9c90613f15565b60405180910390fd5b505b505050505050565b600080823b905060008111915050919050565b6000612dd5612dd08461420a565b6141d9565b90508083825260208201905082856020860282011115612df457600080fd5b60005b85811015612e245781612e0a8882612ed8565b845260208401935060208301925050600181019050612df7565b5050509392505050565b6000612e41612e3c84614236565b6141d9565b90508083825260208201905082856020860282011115612e6057600080fd5b60005b85811015612e905781612e768882612fbf565b845260208401935060208301925050600181019050612e63565b5050509392505050565b6000612ead612ea884614262565b6141d9565b905082815260208101848484011115612ec557600080fd5b612ed084828561445b565b509392505050565b600081359050612ee781614679565b92915050565b600082601f830112612efe57600080fd5b8135612f0e848260208601612dc2565b91505092915050565b600082601f830112612f2857600080fd5b8135612f38848260208601612e2e565b91505092915050565b600081359050612f5081614690565b92915050565b600081519050612f6581614690565b92915050565b600081359050612f7a816146a7565b92915050565b600081519050612f8f816146a7565b92915050565b600082601f830112612fa657600080fd5b8135612fb6848260208601612e9a565b91505092915050565b600081359050612fce816146be565b92915050565b600081519050612fe3816146be565b92915050565b600060208284031215612ffb57600080fd5b600061300984828501612ed8565b91505092915050565b6000806040838503121561302557600080fd5b600061303385828601612ed8565b925050602061304485828601612ed8565b9150509250929050565b600080600080600060a0868803121561306657600080fd5b600061307488828901612ed8565b955050602061308588828901612ed8565b945050604086013567ffffffffffffffff8111156130a257600080fd5b6130ae88828901612f17565b935050606086013567ffffffffffffffff8111156130cb57600080fd5b6130d788828901612f17565b925050608086013567ffffffffffffffff8111156130f457600080fd5b61310088828901612f95565b9150509295509295909350565b600080600080600060a0868803121561312557600080fd5b600061313388828901612ed8565b955050602061314488828901612ed8565b945050604061315588828901612fbf565b935050606061316688828901612fbf565b925050608086013567ffffffffffffffff81111561318357600080fd5b61318f88828901612f95565b9150509295509295909350565b600080604083850312156131af57600080fd5b60006131bd85828601612ed8565b92505060206131ce85828601612f41565b9150509250929050565b600080604083850312156131eb57600080fd5b60006131f985828601612ed8565b925050602061320a85828601612fbf565b9150509250929050565b6000806040838503121561322757600080fd5b600083013567ffffffffffffffff81111561324157600080fd5b61324d85828601612eed565b925050602083013567ffffffffffffffff81111561326a57600080fd5b61327685828601612f17565b9150509250929050565b60006020828403121561329257600080fd5b60006132a084828501612f56565b91505092915050565b6000602082840312156132bb57600080fd5b60006132c984828501612f6b565b91505092915050565b6000602082840312156132e457600080fd5b60006132f284828501612f80565b91505092915050565b60006020828403121561330d57600080fd5b600061331b84828501612fbf565b91505092915050565b60006020828403121561333657600080fd5b600061334484828501612fd4565b91505092915050565b6000806040838503121561336057600080fd5b600061336e85828601612fbf565b925050602061337f85828601612fbf565b9150509250929050565b60008060006060848603121561339e57600080fd5b60006133ac86828701612fbf565b93505060206133bd86828701612fbf565b92505060406133ce86828701612ed8565b9150509250925092565b6000806000606084860312156133ed57600080fd5b60006133fb86828701612fbf565b935050602061340c86828701612fbf565b925050604061341d86828701612fbf565b9150509250925092565b60006134338383613ccd565b60208301905092915050565b613448816143e7565b82525050565b6000613459826142a2565b61346381856142d0565b935061346e83614292565b8060005b8381101561349f5781516134868882613427565b9750613491836142c3565b925050600181019050613472565b5085935050505092915050565b6134b5816143f9565b82525050565b60006134c6826142ad565b6134d081856142e1565b93506134e081856020860161446a565b6134e9816145a5565b840191505092915050565b60006134ff826142b8565b61350981856142f2565b935061351981856020860161446a565b613522816145a5565b840191505092915050565b600061353a6034836142f2565b91507f455243313135353a207472616e7366657220746f206e6f6e204552433131353560008301527f526563656976657220696d706c656d656e7465720000000000000000000000006020830152604082019050919050565b60006135a06028836142f2565b91507f455243313135353a204552433131353552656365697665722072656a6563746560008301527f6420746f6b656e730000000000000000000000000000000000000000000000006020830152604082019050919050565b60006136066024836142f2565b91507f72656c65617365206974656d7320666f72206c6173742061756374696f6e206660008301527f69727374000000000000000000000000000000000000000000000000000000006020830152604082019050919050565b600061366c602b836142f2565b91507f455243313135353a2062616c616e636520717565727920666f7220746865207a60008301527f65726f20616464726573730000000000000000000000000000000000000000006020830152604082019050919050565b60006136d26026836142f2565b91507f4f776e61626c653a206e6577206f776e657220697320746865207a65726f206160008301527f64647265737300000000000000000000000000000000000000000000000000006020830152604082019050919050565b6000613738600d836142f2565b91507f696e76616c696420726f756e64000000000000000000000000000000000000006000830152602082019050919050565b60006137786029836142f2565b91507f455243313135353a2063616c6c6572206973206e6f74206f776e6572206e6f7260008301527f20617070726f76656400000000000000000000000000000000000000000000006020830152604082019050919050565b60006137de603d836142f2565b91507f616d6f756e74206d7573742062652067726561746572207468616e207468652060008301527f63757272656e74206d61782062696420666f722074686973206974656d0000006020830152604082019050919050565b60006138446025836142f2565b91507f455243313135353a207472616e7366657220746f20746865207a65726f20616460008301527f64726573730000000000000000000000000000000000000000000000000000006020830152604082019050919050565b60006138aa6032836142f2565b91507f455243313135353a207472616e736665722063616c6c6572206973206e6f742060008301527f6f776e6572206e6f7220617070726f76656400000000000000000000000000006020830152604082019050919050565b6000613910601b836142f2565b91507f6974656d206e6f7420696e2063757272656e742061756374696f6e00000000006000830152602082019050919050565b6000613950602a836142f2565b91507f455243313135353a20696e73756666696369656e742062616c616e636520666f60008301527f72207472616e73666572000000000000000000000000000000000000000000006020830152604082019050919050565b60006139b66020836142f2565b91507f4f776e61626c653a2063616c6c6572206973206e6f7420746865206f776e65726000830152602082019050919050565b60006139f66023836142f2565b91507f5761697420666f72207468652063757272656e742061756374696f6e20746f2060008301527f656e6400000000000000000000000000000000000000000000000000000000006020830152604082019050919050565b6000613a5c6020836142f2565b91507f6e6f2061756374696f6e20666f72207468652073656c6563746564206974656d6000830152602082019050919050565b6000613a9c601b836142f2565b91507f6e6f2070656e64696e67206974656d7320746f2072656c6561736500000000006000830152602082019050919050565b6000613adc6023836142f2565b91507f4e6f2061756374696f6e2069732072756e6e696e6720617420746865206d6f6d60008301527f656e7400000000000000000000000000000000000000000000000000000000006020830152604082019050919050565b6000613b426029836142f2565b91507f455243313135353a2073657474696e6720617070726f76616c2073746174757360008301527f20666f722073656c6600000000000000000000000000000000000000000000006020830152604082019050919050565b6000613ba86029836142f2565b91507f455243313135353a206163636f756e747320616e6420696473206c656e67746860008301527f206d69736d6174636800000000000000000000000000000000000000000000006020830152604082019050919050565b6000613c0e6028836142f2565b91507f455243313135353a2069647320616e6420616d6f756e7473206c656e6774682060008301527f6d69736d617463680000000000000000000000000000000000000000000000006020830152604082019050919050565b6000613c746021836142f2565b91507f455243313135353a206d696e7420746f20746865207a65726f2061646472657360008301527f73000000000000000000000000000000000000000000000000000000000000006020830152604082019050919050565b613cd681614451565b82525050565b613ce581614451565b82525050565b6000602082019050613d00600083018461343f565b92915050565b600060a082019050613d1b600083018861343f565b613d28602083018761343f565b8181036040830152613d3a818661344e565b90508181036060830152613d4e818561344e565b90508181036080830152613d6281846134bb565b90509695505050505050565b6000606082019050613d83600083018661343f565b613d90602083018561343f565b613d9d6040830184613cdc565b949350505050565b600060a082019050613dba600083018861343f565b613dc7602083018761343f565b613dd46040830186613cdc565b613de16060830185613cdc565b8181036080830152613df381846134bb565b90509695505050505050565b6000604082019050613e14600083018561343f565b613e216020830184613cdc565b9392505050565b6000606082019050613e3d600083018661343f565b613e4a6020830185613cdc565b613e576040830184613cdc565b949350505050565b60006020820190508181036000830152613e79818461344e565b905092915050565b60006040820190508181036000830152613e9b818561344e565b90508181036020830152613eaf818461344e565b90509392505050565b6000602082019050613ecd60008301846134ac565b92915050565b60006020820190508181036000830152613eed81846134f4565b905092915050565b60006020820190508181036000830152613f0e8161352d565b9050919050565b60006020820190508181036000830152613f2e81613593565b9050919050565b60006020820190508181036000830152613f4e816135f9565b9050919050565b60006020820190508181036000830152613f6e8161365f565b9050919050565b60006020820190508181036000830152613f8e816136c5565b9050919050565b60006020820190508181036000830152613fae8161372b565b9050919050565b60006020820190508181036000830152613fce8161376b565b9050919050565b60006020820190508181036000830152613fee816137d1565b9050919050565b6000602082019050818103600083015261400e81613837565b9050919050565b6000602082019050818103600083015261402e8161389d565b9050919050565b6000602082019050818103600083015261404e81613903565b9050919050565b6000602082019050818103600083015261406e81613943565b9050919050565b6000602082019050818103600083015261408e816139a9565b9050919050565b600060208201905081810360008301526140ae816139e9565b9050919050565b600060208201905081810360008301526140ce81613a4f565b9050919050565b600060208201905081810360008301526140ee81613a8f565b9050919050565b6000602082019050818103600083015261410e81613acf565b9050919050565b6000602082019050818103600083015261412e81613b35565b9050919050565b6000602082019050818103600083015261414e81613b9b565b9050919050565b6000602082019050818103600083015261416e81613c01565b9050919050565b6000602082019050818103600083015261418e81613c67565b9050919050565b60006020820190506141aa6000830184613cdc565b92915050565b60006040820190506141c56000830185613cdc565b6141d26020830184613cdc565b9392505050565b6000604051905081810181811067ffffffffffffffff82111715614200576141ff614576565b5b8060405250919050565b600067ffffffffffffffff82111561422557614224614576565b5b602082029050602081019050919050565b600067ffffffffffffffff82111561425157614250614576565b5b602082029050602081019050919050565b600067ffffffffffffffff82111561427d5761427c614576565b5b601f19601f8301169050602081019050919050565b6000819050602082019050919050565b600081519050919050565b600081519050919050565b600081519050919050565b6000602082019050919050565b600082825260208201905092915050565b600082825260208201905092915050565b600082825260208201905092915050565b600061430e82614451565b915061431983614451565b9250827fffffffffffffffffffffffffffffffffffffffffffffffffffffffffffffffff0382111561434e5761434d614518565b5b828201905092915050565b600061436482614451565b915061436f83614451565b9250817fffffffffffffffffffffffffffffffffffffffffffffffffffffffffffffffff04831182151516156143a8576143a7614518565b5b828202905092915050565b60006143be82614451565b91506143c983614451565b9250828210156143dc576143db614518565b5b828203905092915050565b60006143f282614431565b9050919050565b60008115159050919050565b60007fffffffff0000000000000000000000000000000000000000000000000000000082169050919050565b600073ffffffffffffffffffffffffffffffffffffffff82169050919050565b6000819050919050565b82818337600083830152505050565b60005b8381101561448857808201518184015260208101905061446d565b83811115614497576000848401525b50505050565b600060028204905060018216806144b557607f821691505b602082108114156144c9576144c8614547565b5b50919050565b60006144da82614451565b91507fffffffffffffffffffffffffffffffffffffffffffffffffffffffffffffffff82141561450d5761450c614518565b5b600182019050919050565b7f4e487b7100000000000000000000000000000000000000000000000000000000600052601160045260246000fd5b7f4e487b7100000000000000000000000000000000000000000000000000000000600052602260045260246000fd5b7f4e487b7100000000000000000000000000000000000000000000000000000000600052604160045260246000fd5b6000601f19601f8301169050919050565b60008160e01c9050919050565b600060443d10156145d357614676565b60046000803e6145e46000516145b6565b6308c379a081146145f55750614676565b60405160043d036004823e80513d602482011167ffffffffffffffff8211171561462157505050614676565b808201805167ffffffffffffffff811115614640575050505050614676565b8060208301013d850181111561465b57505050505050614676565b614664826145a5565b60208401016040528296505050505050505b90565b614682816143e7565b811461468d57600080fd5b50565b614699816143f9565b81146146a457600080fd5b50565b6146b081614405565b81146146bb57600080fd5b50565b6146c781614451565b81146146d257600080fd5b5056fea264697066735822122099996dbc5397ec07635b5a8601c8baa31f51ab4572d2255c86a9fb059fd07d0864736f6c63430008000033",
  "linkReferences": {},
  "deployedLinkReferences": {}
}